:100000000C946A000C9492000C9492000C94920050
:100010000C9492000C9492000C9492000C94920018
:100020000C9492000C9492000C9492000C94920008
:100030000C9492000C9492000C9492000C949200F8
:100040000C94C9050C9492000C9439060C94130678
:100050000C9492000C9492000C9492000C949200D8
:100060000C9492000C949200EA070A08350857088D
:100070008E08CF080C094D0900000000240027005D
:100080002A0000000000250028002B0000000000CE
:1000900023002600290004040404040404040202CA
:1000A00002020202030303030303010204081020F7
:1000B0004080010204081020010204081020000002
:1000C0000008000201000003040700000000000017
:1000D00000006B0611241FBECFEFD8E0DEBFCDBFFE
:1000E00022E0A6EFB1E001C01D92A83CB207E1F703
:1000F00011E0A0E0B1E0E0E5FAE102C005900D9268
:10010000A63FB107D9F710E0CAE6D0E004C02197B6
:10011000FE010E94240BC936D107C9F70E94B5061B
:100120000C94260D0C94000083E480937C00809155
:100130007A00806480937A0080917A0086FDFCCFFB
:10014000809178002091790090E0922B089583307F
:1001500081F028F4813099F08230A1F00895873041
:10016000A9F08830B9F08430D1F4809180008F7D7F
:1001700003C0809180008F7780938000089584B5BC
:100180008F7702C084B58F7D84BD08958091B000C3
:100190008F7703C08091B0008F7D8093B000089569
:1001A000CF93DF93282F30E0F901E254FF4F849181
:1001B000F901E655FF4FD491F901EA56FF4FC4917A
:1001C000CC2391F081110E94A700EC2FF0E0EE0FFC
:1001D000FF1FE457FF4FA591B491EC91ED2381E00F
:1001E00090E021F480E002C080E090E0DF91CF91C8
:1001F00008951F93CF93DF93282F30E0F901E25445
:10020000FF4F8491F901E655FF4FD491F901EA5669
:10021000FF4FC491CC23C1F0162F81110E94A7007B
:10022000EC2FF0E0EE0FFF1FEE57FF4FA591B491BA
:100230009FB7F894111104C08C91D095D82302C0B7
:10024000EC91DE2BDC939FBFDF91CF911F9108953E
:10025000CF93DF9390E0FC01E655FF4F2491FC0122
:10026000EA56FF4F8491882361F190E0880F991F2F
:10027000FC01E858FF4FC591D491FC01EE57FF4FA8
:10028000A591B491611109C09FB7F8948881209518
:1002900082238883EC912E230BC0623061F49FB7D8
:1002A000F8948881322F309583238883EC912E2B0C
:1002B0002C939FBF06C08FB7F894E8812E2B28831C
:1002C0008FBFDF91CF9108953FB7F89480910B02D3
:1002D00090910C02A0910D02B0910E0226B5A89B40
:1002E00005C02F3F19F00196A11DB11D3FBFBA2FC8
:1002F000A92F982F8827820F911DA11DB11DBC0128
:10030000CD0142E0660F771F881F991F4A95D1F7EC
:1003100008958F929F92AF92BF92CF92DF92EF9209
:10032000FF926B017C010E9464014B015C01C114CE
:10033000D104E104F104F1F00E946401DC01CB017D
:1003400088199909AA09BB09883E9340A105B105FE
:1003500070F321E0C21AD108E108F10888EE880E96
:1003600083E0981EA11CB11CC114D104E104F10466
:1003700019F7DDCFFF90EF90DF90CF90BF90AF9057
:100380009F908F900895CF92DF92EF92FF920F93FC
:100390001F93CF93DF936C017A018B01C0E0D0E013
:1003A000CE15DF0581F0D8016D918D01D601ED915B
:1003B000FC910190F081E02DC6010995892B11F087
:1003C0002196EECF7E01C701DF91CF911F910F9152
:1003D000FF90EF90DF90CF900895FC01538D448DF6
:1003E000252F30E0842F90E0821B930B541710F0E0
:1003F000CF96089501970895FC01918D828D9817ED
:1004000061F0828DDF01A80FB11D5D968C91928DF8
:100410009F5F9F73928F90E008958FEF9FEF0895F5
:10042000FC01918D828D981731F0828DE80FF11DBE
:10043000858D90E008958FEF9FEF0895FC01918DD9
:10044000228D892F90E0805C9F4F821B91098F73D2
:10045000992708958FE092E00E941E0221E0892BE7
:1004600009F420E0822F0895FC01848DDF01A80F9C
:10047000B11DA35ABF4F2C91848D90E001968F73CC
:100480009927848FA689B7892C93A089B1898C91EB
:10049000837080648C93938D848D981306C002883A
:1004A000F389E02D80818F7D80830895EF92FF9204
:1004B0000F931F93CF93DF93EC0181E0888F9B8D87
:1004C0008C8D981305C0E889F989808185FD26C047
:1004D000F62E0B8D10E00F5F1F4F0F731127E02ECC
:1004E0008C8DE8120CC00FB607FCFACFE889F989A9
:1004F000808185FFF5CFCE010E943402F1CF8B8D34
:10050000FE01E80FF11DE35AFF4FF0829FB7F89408
:100510000B8FEA89FB89808180620AC09FB7F894BB
:10052000EE89FF896083E889F9898081837080641E
:1005300080839FBF81E090E0DF91CF911F910F9169
:10054000FF90EF900895CF93DF93EC01888D88237F
:10055000C9F0EA89FB89808185FD05C0A889B98930
:100560008C9186FD0FC00FB607FCF5CF808185FF0B
:10057000F2CFA889B9898C9185FFEDCFCE010E9479
:100580003402E7CFDF91CF91089580E090E0892B8E
:1005900029F00E942A0281110C9400000895CF9343
:1005A000DF93EC0160E08E810E94F90061E08E81B2
:1005B0000E94F90060E08E810E94F9008BE891E0D2
:1005C0000197F1F7DF91CF910895CF92DF92EF92EB
:1005D000FF920F931F93CF93DF936C017C0187E011
:1005E000E80EF11CC0E0D0E0062F10E0B8010C2EA0
:1005F00002C0759567950A94E2F76170F7018191E1
:100600007F010E94F9002196C430D10579F7C60117
:10061000DF91CF911F910F91FF90EF90DF90CF90DE
:100620000C94CF02CF92DF92EF92FF920F931F9321
:10063000CF93DF93EC01F62E642F8C810E94F9009A
:100640008D818F3F19F060E00E94F9008F850F2D9A
:1006500010E084FF25C06E0187E0C80ED11CE12C9C
:10066000F12CB8010E2C02C0759567950A94E2F73B
:100670006170F60181916F010E94F900FFEFEF1A9E
:10068000FF0A88E0E816F10461F7CE01DF91CF910F
:100690001F910F91FF90EF90DF90CF900C94CF02BD
:1006A000B80184E0759567958A95E1F7CE010E94BF
:1006B000E5026F2DCE01DF91CF911F910F91FF9039
:1006C000EF90DF90CF900C94E50240E0682F8CEA29
:1006D00092E00C941203CF93DF93823028F0909134
:1006E000BB0298609093BB028093BF021092C0023D
:1006F00080E48093C10280E18093C20280E5809310
:10070000C30261E08091B0020E9428018091B10291
:100710008F3F19F061E00E94280161E08091B202F0
:100720000E942801CCEAD2E09E012C5A32408091EE
:10073000BB0284FD03C084E090E002C088E090E04A
:100740002196281739072CF461E08E810E94280138
:10075000EBCF8BE39DE00197F1F760E08091B00271
:100760000E94F90060E08091B2020E94F90080913D
:10077000B1028F3F19F060E00E94F9008091BB0246
:1007800084FD20C063E08CEA92E00E94E502CBE4A5
:10079000D6E4CE010197F1F763E08CEA92E00E9483
:1007A000E5022197F1F763E08CEA92E00E94E5020E
:1007B00083E592E00197F1F762E08CEA92E00E9413
:1007C000E50215C080620E9465038BE496E4019700
:1007D000F1F78091BB0280620E94650383E592E09D
:1007E0000197F1F78091BB0280620E9465038091BE
:1007F000BB0280620E94650384E08093BC028CE0AF
:100800000E94650381E00E9465038BE39FE10197ED
:10081000F1F782E08093BD0286E0DF91CF910C94E6
:10082000650341E00E94120381E090E0089508957D
:1008300080E090E008956AEF70E080E090E00E9430
:100840008901809100029091010201968830910502
:100850002CF49093010280930002089510920102FB
:100860001092000208950F931F938C018091020251
:1008700090910302A0910402B09105021816190686
:100880001A061B0604F5012E000C220B330BBC01CB
:10089000CD01601B710B820B930B6093020270936E
:1008A000030280930402909305022091020130918B
:1008B0000301032E000C440B550B0E94050B709393
:1008C000FF016093FE016AEF70E080E090E01F910D
:1008D0000F910C9489012091F6013091F7012F5F5F
:1008E0003F4F3093F7012093F60140910001509162
:1008F000010124173507E1F4092E000CAA0BBB0BEC
:10090000409102025091030260910402709105022D
:10091000840F951FA61FB71F8093020290930302B6
:10092000A0930402B09305021092F7011092F60111
:100930002091020130910301032E000C440B550B52
:10094000609102027091030280910402909105026D
:100950000E94050B7093FF016093FE0162E370E05B
:1009600080E090E00C948901009769F0FC0101900F
:100970000020E9F73197AF01481B590BBC018CEA05
:1009800092E00C94C30180E090E008958F929F92D2
:10099000AF92BF92CF92DF92EF92FF92CF93DF930D
:1009A000CDB7DEB7A1970FB6F894DEBF0FBECDBFAF
:1009B0006B017C0197FF2AC041E06DE28CEA92E076
:1009C0000E94120322273327A9012C193D094E0941
:1009D0005F0919A2CE0181967C019AE0892E912CA3
:1009E000A12CB12CCA01B901A50194010E94E30A0E
:1009F000605DF70162937F012115310541055105C5
:100A000089F7CF010E94B40401961DC09B01AC017F
:100A100019A2CE0181967C018AE0882E912CA12C0E
:100A2000B12CCA01B901A50194010E94E30A605DDD
:100A3000F70162937F01211531054105510589F7C1
:100A4000CF010E94B404A1960FB6F894DEBF0FBE8A
:100A5000CDBFDF91CF91FF90EF90DF90CF90BF900F
:100A6000AF909F908F900895CF92DF92EF92FF9278
:100A70000F931F93CF93DF936C018B017A01E901F0
:100A8000E091BF02E23010F4E15001C0E1E0F0E09B
:100A9000E455FD4F848980680E946503F601448116
:100AA0005581608171818CEA92E00E94C301B80196
:100AB000110F880B990B0E94C604F70144815581E0
:100AC000608171818CEA92E00E94C301BE01DD0F5A
:100AD000880B990BDF91CF911F910F91FF90EF90B1
:100AE000DF90CF900C94C604FC01808191810C941E
:100AF000C20B0E94110DEF92FF920F931F93CF93A1
:100B0000DF93EC01198218821B821A821D821C82DB
:100B100061157105B9F17B01FB0101900020E9F736
:100B200031978F01061B170BB8016F5F7F4F80E075
:100B300090E00E944B0C009759F0998388831B83A7
:100B40000A832C813D81232B81F4FC0110820DC08E
:100B500088819981009711F00E94C20B1982188236
:100B60001D821C821B821A820DC01D830C83B7015B
:100B700088819981DF91CF911F910F91FF90EF9024
:100B80000C941F0DDF91CF911F910F91FF90EF906B
:100B900008951F920F920FB60F9211242F933F9337
:100BA0008F939F93AF93BF93809107029091080218
:100BB000A0910902B0910A023091060223E0230FAE
:100BC0002D3720F40196A11DB11D05C026E8230F85
:100BD0000296A11DB11D20930602809307029093F7
:100BE0000802A0930902B0930A0280910B0290912F
:100BF0000C02A0910D02B0910E020196A11DB11D33
:100C000080930B0290930C02A0930D02B0930E02FE
:100C1000BF91AF919F918F913F912F910F900FBEF8
:100C20000F901F9018951F920F920FB60F921124DC
:100C30002F933F934F935F936F937F938F939F93E4
:100C4000AF93BF93EF93FF938FE092E00E94340243
:100C5000FF91EF91BF91AF919F918F917F916F9194
:100C60005F914F913F912F910F900FBE0F901F906A
:100C700018951F920F920FB60F9211242F938F93F6
:100C80009F93EF93FF93E0911F02F09120028081E8
:100C9000E0912502F091260282FD12C090818091A0
:100CA00028028F5F8F7320912902821751F0E09103
:100CB0002802F0E0E15FFD4F958F8093280201C08C
:100CC0008081FF91EF919F918F912F910F900FBE97
:100CD0000F901F901895EFE0F2E01382128288EED9
:100CE00093E0A0E0B0E084839583A683B78383E19B
:100CF00091E09183808385EC90E09587848784ECF4
:100D000090E09787868780EC90E0918B808B81ECD8
:100D100090E0938B828B82EC90E0958B848B86ECB9
:100D200090E0978B868B118E128E138E148EECEAC8
:100D3000F2E01382128285E291E0918380838CE05D
:100D400084838FEF85838BE0868385E0878384E0CF
:100D5000808783E0818782E08287138614861586E8
:100D60001686178681E00C946B03CF93DF93CDB783
:100D7000DEB72C970FB6F894DEBF0FBECDBF7894C8
:100D800084B5826084BD84B5816084BD85B5826090
:100D900085BD85B5816085BD80916E008160809341
:100DA0006E001092810080918100826080938100AA
:100DB00080918100816080938100809180008160BA
:100DC000809380008091B10084608093B100809115
:100DD000B00081608093B00080917A00846080933D
:100DE0007A0080917A00826080937A0080917A0004
:100DF000816080937A0080917A00806880937A0085
:100E00001092C10082E00E946B038DE291E00E948B
:100E1000B40462E08EE00E94280162E08FE00E944C
:100E2000280162E080E10E942801E0911F02F09118
:100E3000200282E08083E0911B02F0911C0210826C
:100E4000E0911D02F0911E028FEC80831092270228
:100E5000E0912302F091240286E08083E091210258
:100E6000F0912202808180618083E0912102F091E3
:100E70002202808188608083E0912102F091220229
:100E8000808180688083E0912102F091220280813C
:100E90008F7D80830E949400FF24F39401E010E092
:100EA0000E9494006C01909308018093070162E313
:100EB00070E080E090E00E948901C114D10411F437
:100EC000F0920601B601DD0C880B990B0E948A098D
:100ED00020E030E040EA5BE30E94E90920E030E0F6
:100EE00040E850E40E94DE0A181664F4809106017E
:100EF000813041F480910401909105010E946B04BE
:100F00001092060180E10E94D000892B11F40E940A
:100F10001B042091F8013091F90112161306BCF45C
:100F20006091020270910302809104029091050287
:100F3000032E000C440B550B0E94050B3093FD0152
:100F40002093FC017093FB016093FA010CC0109296
:100F5000FD011092FC018091020290910302909396
:100F6000FB018093FA012091FE013091FF018091F5
:100F70000201909103012817390724F01093FF0113
:100F80000093FE01E1E08091BF028111E0E0E19574
:100F9000F0E0E455FD4F848980680E94650360910C
:100FA00002027091030280910402909105020E9456
:100FB000C6048FE291E00E94B404E0910002F09137
:100FC0000102E830F10508F0A0C1EC5CFF4F8EE0B3
:100FD0000C94240B0E94D000892B31F480910401E1
:100FE000909105010E946B048FE00E94D000892B34
:100FF00031F480910401909105010E94330460E472
:1010000071E0CE0101960E947B05C090FE01D09058
:10101000FF014AC00E94D000892B31F48091040165
:10102000909105010E946B048FE00E94D000892BF3
:1010300031F480910401909105010E943304A09045
:10104000FC01B090FD016BE571E0CE0101960E94BC
:101050007B05C090FA01D090FB0169EC71E0CE01F4
:1010600007960E947B05950113C10E94D000892B31
:1010700031F480910401909105010E946B048FE08E
:101080000E94D000892B31F48091040190910501D8
:101090000E94330462E771E0CE0101960E947B0555
:1010A000C090FC01D090FD0169EC71E0AEC00E94DF
:1010B000D000892B79F4809102019091030105966B
:1010C00090930301809302016AEF70E080E090E06A
:1010D0000E9489018FE00E94D000892B91F48091B9
:1010E000020190910301853091052CF005979093B2
:1010F0000301809302016AEF70E080E090E00E94BB
:10110000890167E871E0CE0101960E947B05C090DD
:101110000201D090030162E971E077C00E94D00023
:10112000892BA1F42091F8013091F90180910201FD
:1011300090910301820F931F9093F9018093F8011E
:101140006AEF70E080E090E00E9489018FE00E94E9
:10115000D000892BB9F48091F8019091F901209188
:101160000201309103018217930734F0821B930B25
:101170009093F9018093F8016AEF70E080E090E0CD
:101180000E9489016DE971E0CE0101960E947B0504
:10119000C090F801D090F9016DEA71E036C00E946C
:1011A000D000892B79F4809104019091050101967A
:1011B00090930501809304016AEF70E080E090E075
:1011C0000E9489018FE00E94D000892B91F48091C8
:1011D000040190910501181619062CF401979093BB
:1011E0000501809304016AEF70E080E090E00E94C6
:1011F000890168EB71E0CE0101960E947B05C090E9
:101200000401D09005016AEC71E0CE0107960E94BE
:101210007B0520E030E03CC00E94D000892B79F4AF
:1012200080910001909101010196909301018093BA
:1012300000016AEF70E080E090E00E9489018FE099
:101240000E94D000892B91F48091000190910101BE
:10125000823091052CF00197909301018093000159
:101260006AEF70E080E090E00E94890163ED71E038
:10127000CE0101960E947B05C0900001D090010133
:101280006DED71E0CE0107960E947B0521E030E014
:10129000AE014F5F5F4FB6012CC00E94D000892B7A
:1012A00011F40E941B048FE00E94D000892B71F47E
:1012B0001092020210920302109204021092050290
:1012C0001092FF011092FE010E941B0469EC71E074
:1012D000CE0101960E947B0563EE71E0CE01079678
:1012E0000E947B0520E030E0AE014F5F5F4F60E081
:1012F00070E0CE0107960E943405CE0107960E9449
:101300007405CE0101960E9474050E94C502C8CDE5
:10131000E89409C097FB3EF490958095709561958F
:101320007F4F8F4F9F4F9923A9F0F92F96E9BB2745
:101330009395F695879577956795B795F111F8CFC1
:10134000FAF4BB0F11F460FF1BC06F5F7F4F8F4F2C
:101350009F4F16C0882311F096E911C0772321F022
:101360009EE8872F762F05C0662371F096E8862FBA
:1013700070E060E02AF09A95660F771F881FDAF711
:10138000880F9695879597F90895990F0008550F3E
:10139000AA0BE0E8FEEF16161706E807F907C0F0FB
:1013A00012161306E407F50798F0621B730B840B03
:1013B000950B39F40A2661F0232B242B252B21F4DD
:1013C00008950A2609F4A140A6958FEF811D811D7D
:1013D00008950E94FC090C946D0A0E945F0A38F07F
:1013E0000E94660A20F0952311F00C94560A0C9482
:1013F0005C0A11240C94A10A0E947E0A70F3959F46
:10140000C1F3950F50E0551F629FF001729FBB27FB
:10141000F00DB11D639FAA27F00DB11DAA1F649F97
:101420006627B00DA11D661F829F2227B00DA11D4A
:10143000621F739FB00DA11D621F839FA00D611DD0
:10144000221F749F3327A00D611D231F849F600DF1
:10145000211D822F762F6A2F11249F5750409AF01A
:10146000F1F088234AF0EE0FFF1FBB1F661F771FA6
:10147000881F91505040A9F79E3F510580F00C9471
:10148000560A0C94A10A5F3FE4F3983ED4F3869584
:1014900077956795B795F795E7959F5FC1F7FE2B11
:1014A000880F911D9695879597F9089597F99F67ED
:1014B00080E870E060E008959FEF80EC08950024DC
:1014C0000A941616170618060906089500240A94A9
:1014D00012161306140605060895092E0394000C2F
:1014E00011F4882352F0BB0F40F4BF2B11F460FFBE
:1014F00004C06F5F7F4F8F4F9F4F089557FD9058E7
:10150000440F551F59F05F3F71F04795880F97FBC7
:10151000991F61F09F3F79F0879508951216130681
:101520001406551FF2CF4695F1DF08C016161706B0
:101530001806991FF1CF86957105610508940895E5
:10154000E894BB2766277727CB0197F908952F9258
:101550003F924F925F926F927F928F929F92AF9243
:10156000BF92CF92DF92EF92FF920F931F93CF9390
:10157000DF93CDB7DEB7CA1BDB0B0FB6F894DEBF27
:101580000FBECDBF09942A88398848885F846E844D
:101590007D848C849B84AA84B984C884DF80EE8097
:1015A000FD800C811B81AA81B981CE0FD11D0FB6A0
:1015B000F894DEBF0FBECDBFED0108950E94C509AE
:1015C00008F48FEF0895A1E21A2EAA1BBB1BFD01A0
:1015D0000DC0AA1FBB1FEE1FFF1FA217B307E40712
:1015E000F50720F0A21BB30BE40BF50B661F771F6A
:1015F000881F991F1A9469F760957095809590954A
:101600009B01AC01BD01CF010895052E97FB1EF48F
:1016100000940E941C0B57FD07D00E94E30A07FCB0
:1016200003D04EF40C941C0B5095409530952195A9
:101630003F4F4F4F5F4F08959095809570956195FE
:101640007F4F8F4F9F4F0895EE0FFF1F0590F4912E
:10165000E02D09940F931F93CF93DF938230910570
:1016600010F482E090E0E091C602F091C70220E021
:1016700030E0A0E0B0E0309719F140815181028163
:10168000138148175907C8F08417950769F4109714
:1016900031F012960C93129713961C9327C0009367
:1016A000C6021093C70222C02115310519F0421756
:1016B000530718F49A01BD01EF01DF01F801DBCFF8
:1016C00021153105F9F0281B390B2430310580F440
:1016D0008A819B816115710521F0FB0193838283CF
:1016E00004C09093C7028093C602FE01329644C0A4
:1016F000FE01E20FF31F8193919322503109398348
:1017000028833AC02091C4023091C502232B41F4B2
:1017100020910B0130910C013093C5022093C4023B
:101720002091090130910A012115310541F42DB7AD
:101730003EB740910D0150910E01241B350BE091F5
:10174000C402F091C502E217F307A0F42E1B3F0B71
:101750002817390778F0AC014E5F5F4F2417350723
:1017600048F04E0F5F1F5093C5024093C40281930F
:10177000919302C0E0E0F0E0CF01DF91CF911F91A3
:101780000F910895CF93DF93009709F481C0FC0176
:10179000329713821282A091C602B091C7021097AD
:1017A00081F420813181820F931F2091C4023091F6
:1017B000C5022817390751F5F093C502E093C4021A
:1017C00067C0ED0120E030E0CE17DF0740F44A812A
:1017D0005B819E0141155105F1F0EA01F5CFD383FC
:1017E000C28340815181840F951FC817D90759F4CE
:1017F00088819981840F951F0296918380838A81C5
:101800009B81938382832115310529F4F093C702CC
:10181000E093C6023DC0E901FB83EA8349915991F7
:10182000C40FD51FEC17FD0761F480819181840FEF
:10183000951F0296E90199838883828193819B8316
:101840008A83E0E0F0E012968D919C9113970097C7
:1018500019F0FD01DC01F7CF8D919C9111979D014D
:101860002E5F3F4F820F931F2091C4023091C5021B
:101870002817390769F4309729F41092C70210929B
:10188000C60202C013821282B093C502A093C402A2
:10189000DF91CF910895A0E0B0E0E1E5FCE00C9489
:1018A000AB0AEC01009721F4CB010E942A0BB4C0D3
:1018B000FC01E60FF71F9C0122503109E217F307E4
:1018C00008F4A8C0D9010D911C91119706171707AC
:1018D000B0F00530110508F49BC0C80104978617C5
:1018E000970708F495C002501109061B170B0193C6
:1018F00011936D937C93CF010E94C20B89C05B0151
:10190000A01AB10A4C01800E911EA091C602B0919E
:10191000C702612C712CE12CF12C109709F446C000
:101920008D919C911197A815B905B1F56C0142E014
:10193000C40ED11CCA14DB0478F14C018A189B0830
:10194000640142E0C40ED11C1296BC90129713960B
:10195000AC91B5E0CB16D10440F0B282A383918262
:101960008082D9016D937C9309C00E5F1F4F800F59
:10197000911FF90191838083EB2DFA2FE114F1047B
:1019800031F0D7011396FC93EE93129741C0F09378
:10199000C702E093C6023CC06816790608F43C0111
:1019A0007D0112960D90BC91A02DB7CF8091C402FD
:1019B0009091C50288169906E1F466167706C8F478
:1019C0008091090190910A01009741F48DB79EB76B
:1019D00040910D0150910E01841B950BE817F907FA
:1019E000C8F4F093C502E093C402F90171836083E7
:1019F0000FC0CB010E942A0B7C01009759F0A8016F
:101A0000BE010E94160DCE010E94C20BC70104C088
:101A1000CE0102C080E090E0CDB7DEB7EEE00C94DE
:101A2000C70A81E090E0F8940C94260DFB01DC01DC
:101A300002C001900D9241505040D8F70895FB012B
:101A4000DC0101900D920020E1F70895F894FFCF9A
:101A50000100640001000164000000C80280000071
:101A60000000005602C301ED01A3021E02FC01109A
:101A700002000000001104C3011804170430002004
:101A8000737A742077737A7973746B696368200052
:101A900020737A74756B2077207061637A63652098
:101AA00020202020202020202020002077206F735D
:101AB0007461746E696D206B6172746F6E696520FC
:101AC00020002070656C6E65206B6172746F6E799A
:101AD0002020202020200020737A74202020202025
:101AE00020005041435A4B4120746F200020737AEC
:101AF000742020202020202020202020004B415234
:101B0000544F4E20746F200020737A7420202020C0
:101B1000202020202020202020004C49435A205003
:101B20004F20002074616B74206A616B004C494344
:101B30005A20002B77796A647A2B202D736B61739E
:061B4000756A2D20000073
:107800000C94343C0C94513C0C94513C0C94513CE1
:107810000C94513C0C94513C0C94513C0C94513CB4
:107820000C94513C0C94513C0C94513C0C94513CA4
:107830000C94513C0C94513C0C94513C0C94513C94
:107840000C94513C0C94513C0C94513C0C94513C84
:107850000C94513C0C94513C0C94513C0C94513C74
:107860000C94513C0C94513C11241FBECFEFD8E036
:10787000DEBFCDBF11E0A0E0B1E0ECE9FFE702C060
:1078800005900D92A230B107D9F712E0A2E0B1E065
:1078900001C01D92AD30B107E1F70E942D3D0C945F
:1078A000CC3F0C94003C982F959595959595959582
:1078B000905D8F708A307CF0282F295A8091C0000B
:1078C00085FFFCCF9093C6008091C00085FFFCCF60
:1078D0002093C6000895282F205DF0CF982F809127
:1078E000C00085FFFCCF9093C6000895EF92FF92F1
:1078F0000F931F93EE24FF2487018091C00087FD22
:1079000017C00894E11CF11C011D111D81E4E8164B
:1079100082E4F8068FE0080780E0180770F3E09132
:107920000401F091050109958091C00087FFE9CF1E
:107930008091C6001F910F91FF90EF9008950E94D3
:10794000763C982F8091C00085FFFCCF9093C600B5
:1079500091362CF490330CF09053892F089597555D
:10796000892F08951F930E949F3C182F0E949F3CCF
:107970001295107F810F1F9108951F93182F882350
:1079800021F00E94763C1150E1F71F9108951F935A
:10799000182F0E94763C803249F0809103018F5F5E
:1079A000809303018530C1F01F9108958091C0003C
:1079B00085FFFCCF84E18093C6008091C00085FFE5
:1079C000FCCF1093C6008091C00085FFFCCF80E102
:1079D0008093C6001F910895E0910401F091050184
:1079E00009951F9108950E94763C803241F0809164
:1079F00003018F5F80930301853081F008958091AA
:107A0000C00085FFFCCF84E18093C6008091C00058
:107A100085FFFCCF80E18093C6000895E0910401CA
:107A2000F09105010995089540E951E08823A1F0FE
:107A30002D9A28EE33E0FA013197F1F721503040CA
:107A4000D1F72D9828EE33E0FA013197F1F7215064
:107A50003040D1F7815061F708953F924F925F9285
:107A60006F927F928F929F92AF92BF92CF92DF924E
:107A7000EF92FF920F931F93CF93DF93000080E16B
:107A80008093C4001092C50088E18093C10086E015
:107A90008093C2005098589A259A81E00E94143D24
:107AA00024E1F22E9EE1E92E85E9D82E0FE0C02ECA
:107AB00010E1B12EAA24A394B1E49B2EA6E58A2E50
:107AC000F2E57F2EE0E26E2E79E4572E63E5462E36
:107AD00050E5352E0E94763C8033B1F18133B9F107
:107AE000803409F46FC0813409F476C0823409F41B
:107AF00085C0853409F488C0803531F1823521F1A3
:107B0000813511F1853509F485C0863509F48DC0BC
:107B1000843609F496C0843709F403C1853709F423
:107B200072C1863709F466C0809103018F5F80932C
:107B30000301853079F6E0910401F0910501099582
:107B40000E94763C803351F60E94F33CC3CF0E94E2
:107B5000763C803249F78091C00085FFFCCFF092DF
:107B6000C6008091C00085FFFCCF9092C600809136
:107B7000C00085FFFCCF8092C6008091C00085FFC9
:107B8000FCCF7092C6008091C00085FFFCCF609250
:107B9000C6008091C00085FFFCCF5092C600809146
:107BA000C00085FFFCCF4092C6008091C00085FFD9
:107BB000FCCF3092C6008091C00085FFFCCFB09210
:107BC000C60088CF0E94763C863808F4BDCF0E945C
:107BD000763C0E94F33C7ECF0E94763C803809F4CC
:107BE0009CC0813809F40BC1823809F43CC1883942
:107BF00009F48FC080E00E94C73C6CCF84E10E94F2
:107C0000BD3C0E94F33C66CF85E00E94BD3C0E94D3
:107C1000F33C60CF0E94763C809306010E94763C44
:107C2000809307010E94F33C55CF0E94763C80333D
:107C300009F41DC183E00E94BD3C80E00E94C73C66
:107C400049CF0E94763C809309020E94763C809343
:107C5000080280910C028E7F80930C020E94763C79
:107C6000853409F415C18091080290910902892B8D
:107C700089F000E010E00E94763CF801E85FFE4FDA
:107C800080830F5F1F4F80910802909109020817AF
:107C9000190788F30E94763C803209F045CF809125
:107CA0000C0280FF01C16091060170910701660F0F
:107CB000771F7093070160930601A0910802B091AD
:107CC00009021097C9F0E8E0F1E09B01AD014E0F09
:107CD0005F1FF999FECF32BD21BD819180BDFA9A17
:107CE000F99A2F5F3F4FE417F50799F76A0F7B1F4B
:107CF00070930701609306018091C00085FFFCCF5F
:107D0000F092C6008091C00085FFFCCFB092C60003
:107D1000E1CE83E00E94C73CDDCE82E00E94C73CFA
:107D2000D9CE0E94763C809309020E94763C8093D3
:107D300008028091060190910701880F991F909386
:107D40000701809306010E94763C853409F4A6C0A1
:107D500080910C028E7F80930C020E94763C8032D0
:107D600009F0B8CE8091C00085FFFCCFF092C6002C
:107D7000609108027091090261157105B9F140E046
:107D800050E080910C02A82FA170B82FB27011C0E2
:107D9000BB2309F45CC0E0910601F0910701319624
:107DA000F0930701E09306014F5F5F4F46175707B7
:107DB000E8F4AA2369F3F999FECF209106013091E6
:107DC000070132BD21BDF89A90B58091C00085FFB2
:107DD000FCCF9093C6002F5F3F4F30930701209355
:107DE00006014F5F5F4F4617570718F38091C00099
:107DF00085FDE5CE8091C00085FFF8CFE0CE81E023
:107E00000E94C73C67CE0E94763C803209F08CCE3F
:107E10008091C00085FFFCCFF092C6008091C00029
:107E200085FFFCCFE092C6008091C00085FFFCCFAB
:107E3000D092C6008091C00085FFFCCFC092C600E2
:107E40008091C00085FFFCCFB092C60043CEE09188
:107E50000601F091070194918091C00085FFFCCF4D
:107E60009093C6009CCF80E10E94C73C33CE0E9415
:107E7000763C0E94763C182F0E94763C112309F430
:107E800083C0113009F484C08FE00E94C73C22CE29
:107E900080910C02816080930C02E5CE80910C02EF
:107EA000816080930C0259CF809107018823880F4D
:107EB000880B8A2180930B02809106019091070123
:107EC000880F991F90930701809306018091080203
:107ED00080FF09C080910802909109020196909359
:107EE000090280930802F894F999FECF1127E091D6
:107EF0000601F0910701C8E0D1E08091080290915D
:107F00000902103091F40091570001700130D9F34B
:107F100003E000935700E89500915700017001308D
:107F2000D9F301E100935700E89509901990009169
:107F3000570001700130D9F301E000935700E89534
:107F40001395103498F011270091570001700130FB
:107F5000D9F305E000935700E895009157000170B0
:107F60000130D9F301E100935700E895329602976A
:107F700009F0C7CF103011F00296E5CF112480919F
:107F8000C00085FFB9CEBCCE8EE10E94C73CA2CD19
:0C7F900085E90E94C73C9ECDF894FFCF0D
:027F9C00800063
:040000030000780081
:00000001FF
