:100000000C9469000C9491000C9491000C94910054
:100010000C9491000C9491000C9491000C9491001C
:100020000C9491000C9491000C9491000C9491000C
:100030000C9491000C9491000C9491000C949100FC
:100040000C9423040C9491000C9491000C94910056
:100050000C9491000C9491000C9491000C949100DC
:100060000C9491000C9491002B05440565057E05C8
:10007000B805FC05360600000000240027002A0011
:1000800000000000250028002B00000000002300D5
:1000900026002900040404040404040402020202E9
:1000A000020203030303030301020408102040803B
:1000B00001020408102001020408102000000008BA
:1000C000000201000003040700000000000000001F
:1000D0005C0611241FBECFEFD8E0DEBFCDBF11E01C
:1000E000A0E0B1E0E0E9FDE002C005900D92A03A89
:1000F000B107D9F721E0A0EAB1E001C01D92AF3C01
:10010000B207E1F710E0C9E6D0E004C02197FE0194
:100110000E94BB06C836D107C9F70E946D040C9433
:10012000C6060C940000833081F028F4813099F0E9
:100130008230A1F008958730A9F08830B9F084307A
:10014000D1F4809180008F7D03C0809180008F77F3
:1001500080938000089584B58F7702C084B58F7D29
:1001600084BD08958091B0008F7703C08091B00066
:100170008F7D8093B0000895CF93DF93282F30E0D8
:10018000F901E454FF4F8491F901E855FF4FD491F0
:10019000F901EC56FF4FC491CC2391F081110E94DC
:1001A0009300EC2FF0E0EE0FFF1FE657FF4FA591F5
:1001B000B491EC91ED2381E090E021F480E002C065
:1001C00080E090E0DF91CF9108951F93CF93DF936C
:1001D000282F30E0F901E454FF4F8491F901E855EC
:1001E000FF4FD491F901EC56FF4FC491CC23C1F0DD
:1001F000162F81110E949300EC2FF0E0EE0FFF1FED
:10020000E058FF4FA591B4919FB7F894111104C025
:100210008C91D095D82302C0EC91DE2BDC939FBF4C
:10022000DF91CF911F910895CF93DF9390E0FC0170
:10023000E855FF4F2491FC01EC56FF4F8491882331
:1002400061F190E0880F991FFC01EA58FF4FC591BA
:10025000D491FC01E058FF4FA591B491611109C000
:100260009FB7F8948881209582238883EC912E2370
:100270000BC0623061F49FB7F8948881322F3095BB
:1002800083238883EC912E2B2C939FBF06C08FB7BE
:10029000F894E8812E2B28838FBFDF91CF910895AA
:1002A0003FB7F8948091AD019091AE01A091AF015C
:1002B000B091B00126B5A89B05C02F3F19F001965B
:1002C000A11DB11D3FBFBA2FA92F982F8827820FDC
:1002D000911DA11DB11DBC01CD0142E0660F771F2C
:1002E000881F991F4A95D1F708958F929F92AF92D8
:1002F000BF92CF92DF92EF92FF926B017C010E943E
:1003000050014B015C01C114D104E104F104F1F08E
:100310000E945001DC01CB0188199909AA09BB0987
:10032000883E9340A105B10570F321E0C21AD108BF
:10033000E108F10888EE880E83E0981EA11CB11C2C
:10034000C114D104E104F10419F7DDCFFF90EF905F
:10035000DF90CF90BF90AF909F908F9008956EE503
:1003600071E080E090E00E9475018091B50190916C
:10037000B60101969093B6018093B5018091B101C9
:100380009091B201A091B301B091B4010196A11D69
:10039000B11D8093B1019093B201A093B301B093CA
:1003A000B40108956EE571E080E090E00E9475016F
:1003B0008091B5019091B60118161906C4F4019701
:1003C0009093B6018093B5018091B1019091B201F3
:1003D000A091B301B091B4010197A109B109809333
:1003E000B1019093B201A093B301B093B401809195
:1003F000B5019091B60197FF09C0809102019091DB
:10040000030101979093B6018093B5010895CF92AF
:10041000DF92EF92FF920F931F93CF93DF936C01C4
:100420007A018B01C0E0D0E0CE15DF0581F0D80164
:100430006D918D01D601ED91FC910190F081E02D3F
:10044000C6010995892B11F02196EECF7E01C701D7
:10045000DF91CF911F910F91FF90EF90DF90CF90A0
:100460000895CF93DF93EC0160E08E810E94E50058
:1004700061E08E810E94E50060E08E810E94E500CF
:100480008BE891E00197F1F7DF91CF910895CF923A
:10049000DF92EF92FF920F931F93CF93DF936C0144
:1004A0007C0187E0E80EF11CC0E0D0E0062F10E0F0
:1004B000B8010C2E02C0759567950A94E2F7617039
:1004C000F70181917F010E94E5002196C430D1059A
:1004D00079F7C601DF91CF911F910F91FF90EF90B7
:1004E000DF90CF900C943102CF92DF92EF92FF9287
:1004F0000F931F93CF93DF93EC01F62E642F8C8123
:100500000E94E5008D818F3F19F060E00E94E500B8
:100510008F850F2D10E084FF25C06E0187E0C80E87
:10052000D11CE12CF12CB8010E2C02C075956795F9
:100530000A94E2F76170F60181916F010E94E50073
:10054000FFEFEF1AFF0A88E0E816F10461F7CE0129
:10055000DF91CF911F910F91FF90EF90DF90CF909F
:100560000C943102B80184E0759567958A95E1F79E
:10057000CE010E9447026F2DCE01DF91CF911F91D6
:100580000F91FF90EF90DF90CF900C94470240E0E6
:10059000682F87EB91E00C947402CF93DF93823045
:1005A00028F09091C60198609093C6018093CA018B
:1005B0001092CB0180E48093CC0180E18093CD0147
:1005C00080E58093CE0161E08091BB010E9414011F
:1005D0008091BC018F3F19F061E00E94140161E03D
:1005E0008091BD010E941401C7EBD1E09E01275B01
:1005F00031408091C60184FD03C084E090E002C0D8
:1006000088E090E02196281739072CF461E08E816C
:100610000E941401EBCF8BE39DE00197F1F760E0BE
:100620008091BB010E94E50060E08091BD010E94C5
:10063000E5008091BC018F3F19F060E00E94E50069
:100640008091C60184FD20C063E087EB91E00E94A9
:100650004702CBE4D6E4CE010197F1F763E087EBE4
:1006600091E00E9447022197F1F763E087EB91E068
:100670000E94470283E592E00197F1F762E087EB81
:1006800091E00E94470215C080620E94C7028BE47D
:1006900096E40197F1F78091C60180620E94C7023B
:1006A00083E592E00197F1F78091C60180620E9494
:1006B000C7028091C60180620E94C70284E08093D5
:1006C000C7018CE00E94C70281E00E94C7028BE351
:1006D0009FE10197F1F782E08093C80186E0DF9106
:1006E000CF910C94C702843008F083E09091CA0146
:1006F000891710F08FEF890FE82FF0E0E954FE4FD3
:10070000848980680C94C70241E00E94740281E0F1
:1007100090E00895089580E090E008956CE271E023
:1007200080E090E00E9475018091A6019091A70160
:100730000196863091052CF49093A7018093A60131
:1007400008951092A7011092A6010895009769F0EC
:10075000FC0101900020E9F73197AF01481B590BCC
:10076000BC0187EB91E00C94070280E090E00895D3
:100770000C94A6038F929F92AF92BF920F931F93F8
:10078000CF93DF93CDB7DEB7A1970FB6F894DEBF56
:100790000FBECDBF19A2423008F44AE08E010F5DB2
:1007A0001F4F842E912CA12CB12CA50194010E94E5
:1007B0007A06E62FB901CA0101501109EA3014F492
:1007C000E05D01C0E95CD801EC93232B242B252BA1
:1007D00061F7C8010E94A603A1960FB6F894DEBF88
:1007E0000FBECDBFDF91CF911F910F91BF90AF9002
:1007F0009F908F900895CF92DF92EF92FF926B01BE
:100800007C0141E06DE287EB91E00E947402662773
:100810007727CB016C197D098E099F094AE00E9458
:10082000BA030196FF90EF90DF90CF900895BC013E
:10083000990F880B990B97FD0C94FB034AE00C94DD
:10084000BA030E94C1061F920F920FB60F92112495
:100850002F933F938F939F93AF93BF938091A90161
:100860009091AA01A091AB01B091AC013091A80187
:1008700023E0230F2D3720F40196A11DB11D05C0E3
:1008800026E8230F0296A11DB11D2093A801809395
:10089000A9019093AA01A093AB01B093AC01809100
:1008A000AD019091AE01A091AF01B091B001019660
:1008B000A11DB11D8093AD019093AE01A093AF0136
:1008C000B093B001BF91AF919F918F913F912F91C4
:1008D0000F900FBE0F901F901895789484B582608A
:1008E00084BD84B5816084BD85B5826085BD85B5D4
:1008F000816085BD80916E00816080936E00109252
:1009000081008091810082608093810080918100CC
:10091000816080938100809180008160809380005D
:100920008091B10084608093B1008091B0008160BB
:100930008093B00080917A00846080937A008091E7
:100940007A00826080937A0080917A00816080933F
:100950007A0080917A00806880937A001092C100BA
:1009600082E00E94CD0280E191E00E94B80362E043
:100970008EE00E94140162E08FE00E94140162E0A8
:1009800080E10E941401C0E0D0E001E010E080E1CD
:100990000E94BC00892B11F40E948E032091A001BB
:1009A0003091A10112161306BCF46091B10170914F
:1009B000B2018091B3019091B401032E000C440B5D
:1009C000550B0E949C063093A3012093A2017093C3
:1009D000A5016093A4010CC01092A3011092A20182
:1009E0008091B1019091B2019093A5018093A401EF
:1009F0002091B5013091B6018091020190910301DF
:100A00008217930724F41093B6010093B50180E098
:100A10000E9473036091B1017091B2018091B301A2
:100A20009091B40197FF03C00E94FB0303C04AE00A
:100A30000E94BA0382E191E00E94B803E091A6010E
:100A4000F091A701E730F10508F030C1EC5CFF4FF1
:100A50008EE00C94BB060E94BC00892B11F40E940E
:100A6000AF018FE00E94BC00892B11F40E94D201DB
:100A700081E00E9473038091B5019091B6010E94BC
:100A8000170483E291E010C10E94BC00892B11F48D
:100A90000E94AF018FE00E94BC00892B11F40E94DC
:100AA000D20181E00E9473038091A4019091A5017D
:100AB0000E94170483E391E00E94B8038091A20191
:100AC0009091A3010E941704F1C00E94BC00892BE1
:100AD00011F40E94AF018FE00E94BC00892B11F439
:100AE0000E94D20181E00E9473038091A201909143
:100AF000A3010E9417048AE491E0D6C00E94BC00C2
:100B0000892B79F4809102019091030105969093CD
:100B10000301809302016EE571E080E090E00E94A5
:100B200075018FE00E94BC00892B91F48091020135
:100B300090910301181619062CF405979093030160
:100B4000809302016EE571E080E090E00E94750103
:100B500081E00E9473038BE591E00E94B8038091CD
:100B60000201909103010E94170486E691E09CC067
:100B70000E94BC00892BA1F42091A0013091A10119
:100B80008091020190910301820F931F9093A10124
:100B90008093A0016EE571E080E090E00E94750115
:100BA0008FE00E94BC00892BB9F48091A001909144
:100BB000A1011816190654F4209102013091030185
:100BC000821B930B9093A1018093A0016EE571E0CD
:100BD00080E090E00E94750181E00E9473038EE640
:100BE00091E00E94B8038091A0019091A1010E9420
:100BF000170483E891E058C00E94BC00892B79F467
:100C000080910001909101010196909301018093E0
:100C100000016EE571E080E090E00E9475018FE0D8
:100C20000E94BC00892B91F48091000190910101F8
:100C3000181619062CF40197909301018093000176
:100C40006EE571E080E090E00E94750181E00E9415
:100C5000730389E791E00E94B803809100019091AD
:100C600001010E94170482E891E01EC00E94BC00AE
:100C7000892B11F40E948E038FE00E94BC00892B07
:100C800071F41092B1011092B2011092B30110925E
:100C9000B4011092B6011092B5010E948E0381E05A
:100CA0000E9473038FE891E00E94B803209709F433
:100CB0006ECE0E9400006BCEE7EBF1E01382128251
:100CC00088E091E0918380838CE084838FEF85833B
:100CD0008BE0868385E0878384E0808783E081875B
:100CE00082E082871386148615861686178681E031
:100CF0000C94CD02A1E21A2EAA1BBB1BFD010DC054
:100D0000AA1FBB1FEE1FFF1FA217B307E407F507BB
:100D100020F0A21BB30BE40BF50B661F771F881F97
:100D2000991F1A9469F760957095809590959B012D
:100D3000AC01BD01CF010895052E97FB1EF4009470
:100D40000E94B30657FD07D00E947A0607FC03D025
:100D50004EF40C94B30650954095309521953F4F35
:100D60004F4F5F4F089590958095709561957F4F97
:100D70008F4F9F4F0895EE0FFF1F0590F491E02DC8
:100D8000099481E090E0F8940C94C606F894FFCFA3
:100D90000100640000000000840307028B038A0343
:100DA000300020737A742077737A7973746B696377
:100DB00068200020737A742020202020202020200A
:100DC0002020002077206F737461746E696D206B32
:100DD0006172746F6E69652020002070656C6E65AD
:100DE000206B6172746F6E792020005041435A4B22
:100DF0004120746F2000737A7420202020004B4122
:100E000052544F4E20746F20004C49435A20504F8B
:100E1000200020737A742020202020202020002D04
:100E2000736B6173756A2D202B77796A647A2B0056
:107800000C94343C0C94513C0C94513C0C94513CE1
:107810000C94513C0C94513C0C94513C0C94513CB4
:107820000C94513C0C94513C0C94513C0C94513CA4
:107830000C94513C0C94513C0C94513C0C94513C94
:107840000C94513C0C94513C0C94513C0C94513C84
:107850000C94513C0C94513C0C94513C0C94513C74
:107860000C94513C0C94513C11241FBECFEFD8E036
:10787000DEBFCDBF11E0A0E0B1E0ECE9FFE702C060
:1078800005900D92A230B107D9F712E0A2E0B1E065
:1078900001C01D92AD30B107E1F70E942D3D0C945F
:1078A000CC3F0C94003C982F959595959595959582
:1078B000905D8F708A307CF0282F295A8091C0000B
:1078C00085FFFCCF9093C6008091C00085FFFCCF60
:1078D0002093C6000895282F205DF0CF982F809127
:1078E000C00085FFFCCF9093C6000895EF92FF92F1
:1078F0000F931F93EE24FF2487018091C00087FD22
:1079000017C00894E11CF11C011D111D81E4E8164B
:1079100082E4F8068FE0080780E0180770F3E09132
:107920000401F091050109958091C00087FFE9CF1E
:107930008091C6001F910F91FF90EF9008950E94D3
:10794000763C982F8091C00085FFFCCF9093C600B5
:1079500091362CF490330CF09053892F089597555D
:10796000892F08951F930E949F3C182F0E949F3CCF
:107970001295107F810F1F9108951F93182F882350
:1079800021F00E94763C1150E1F71F9108951F935A
:10799000182F0E94763C803249F0809103018F5F5E
:1079A000809303018530C1F01F9108958091C0003C
:1079B00085FFFCCF84E18093C6008091C00085FFE5
:1079C000FCCF1093C6008091C00085FFFCCF80E102
:1079D0008093C6001F910895E0910401F091050184
:1079E00009951F9108950E94763C803241F0809164
:1079F00003018F5F80930301853081F008958091AA
:107A0000C00085FFFCCF84E18093C6008091C00058
:107A100085FFFCCF80E18093C6000895E0910401CA
:107A2000F09105010995089540E951E08823A1F0FE
:107A30002D9A28EE33E0FA013197F1F721503040CA
:107A4000D1F72D9828EE33E0FA013197F1F7215064
:107A50003040D1F7815061F708953F924F925F9285
:107A60006F927F928F929F92AF92BF92CF92DF924E
:107A7000EF92FF920F931F93CF93DF93000080E16B
:107A80008093C4001092C50088E18093C10086E015
:107A90008093C2005098589A259A81E00E94143D24
:107AA00024E1F22E9EE1E92E85E9D82E0FE0C02ECA
:107AB00010E1B12EAA24A394B1E49B2EA6E58A2E50
:107AC000F2E57F2EE0E26E2E79E4572E63E5462E36
:107AD00050E5352E0E94763C8033B1F18133B9F107
:107AE000803409F46FC0813409F476C0823409F41B
:107AF00085C0853409F488C0803531F1823521F1A3
:107B0000813511F1853509F485C0863509F48DC0BC
:107B1000843609F496C0843709F403C1853709F423
:107B200072C1863709F466C0809103018F5F80932C
:107B30000301853079F6E0910401F0910501099582
:107B40000E94763C803351F60E94F33CC3CF0E94E2
:107B5000763C803249F78091C00085FFFCCFF092DF
:107B6000C6008091C00085FFFCCF9092C600809136
:107B7000C00085FFFCCF8092C6008091C00085FFC9
:107B8000FCCF7092C6008091C00085FFFCCF609250
:107B9000C6008091C00085FFFCCF5092C600809146
:107BA000C00085FFFCCF4092C6008091C00085FFD9
:107BB000FCCF3092C6008091C00085FFFCCFB09210
:107BC000C60088CF0E94763C863808F4BDCF0E945C
:107BD000763C0E94F33C7ECF0E94763C803809F4CC
:107BE0009CC0813809F40BC1823809F43CC1883942
:107BF00009F48FC080E00E94C73C6CCF84E10E94F2
:107C0000BD3C0E94F33C66CF85E00E94BD3C0E94D3
:107C1000F33C60CF0E94763C809306010E94763C44
:107C2000809307010E94F33C55CF0E94763C80333D
:107C300009F41DC183E00E94BD3C80E00E94C73C66
:107C400049CF0E94763C809309020E94763C809343
:107C5000080280910C028E7F80930C020E94763C79
:107C6000853409F415C18091080290910902892B8D
:107C700089F000E010E00E94763CF801E85FFE4FDA
:107C800080830F5F1F4F80910802909109020817AF
:107C9000190788F30E94763C803209F045CF809125
:107CA0000C0280FF01C16091060170910701660F0F
:107CB000771F7093070160930601A0910802B091AD
:107CC00009021097C9F0E8E0F1E09B01AD014E0F09
:107CD0005F1FF999FECF32BD21BD819180BDFA9A17
:107CE000F99A2F5F3F4FE417F50799F76A0F7B1F4B
:107CF00070930701609306018091C00085FFFCCF5F
:107D0000F092C6008091C00085FFFCCFB092C60003
:107D1000E1CE83E00E94C73CDDCE82E00E94C73CFA
:107D2000D9CE0E94763C809309020E94763C8093D3
:107D300008028091060190910701880F991F909386
:107D40000701809306010E94763C853409F4A6C0A1
:107D500080910C028E7F80930C020E94763C8032D0
:107D600009F0B8CE8091C00085FFFCCFF092C6002C
:107D7000609108027091090261157105B9F140E046
:107D800050E080910C02A82FA170B82FB27011C0E2
:107D9000BB2309F45CC0E0910601F0910701319624
:107DA000F0930701E09306014F5F5F4F46175707B7
:107DB000E8F4AA2369F3F999FECF209106013091E6
:107DC000070132BD21BDF89A90B58091C00085FFB2
:107DD000FCCF9093C6002F5F3F4F30930701209355
:107DE00006014F5F5F4F4617570718F38091C00099
:107DF00085FDE5CE8091C00085FFF8CFE0CE81E023
:107E00000E94C73C67CE0E94763C803209F08CCE3F
:107E10008091C00085FFFCCFF092C6008091C00029
:107E200085FFFCCFE092C6008091C00085FFFCCFAB
:107E3000D092C6008091C00085FFFCCFC092C600E2
:107E40008091C00085FFFCCFB092C60043CEE09188
:107E50000601F091070194918091C00085FFFCCF4D
:107E60009093C6009CCF80E10E94C73C33CE0E9415
:107E7000763C0E94763C182F0E94763C112309F430
:107E800083C0113009F484C08FE00E94C73C22CE29
:107E900080910C02816080930C02E5CE80910C02EF
:107EA000816080930C0259CF809107018823880F4D
:107EB000880B8A2180930B02809106019091070123
:107EC000880F991F90930701809306018091080203
:107ED00080FF09C080910802909109020196909359
:107EE000090280930802F894F999FECF1127E091D6
:107EF0000601F0910701C8E0D1E08091080290915D
:107F00000902103091F40091570001700130D9F34B
:107F100003E000935700E89500915700017001308D
:107F2000D9F301E100935700E89509901990009169
:107F3000570001700130D9F301E000935700E89534
:107F40001395103498F011270091570001700130FB
:107F5000D9F305E000935700E895009157000170B0
:107F60000130D9F301E100935700E895329602976A
:107F700009F0C7CF103011F00296E5CF112480919F
:107F8000C00085FFB9CEBCCE8EE10E94C73CA2CD19
:0C7F900085E90E94C73C9ECDF894FFCF0D
:027F9C00800063
:040000030000780081
:00000001FF
