:100000000C9462000C948A000C948A000C948A0070
:100010000C948A000C948A000C948A000C948A0038
:100020000C948A000C948A000C948A000C948A0028
:100030000C948A000C948A000C948A000C948A0018
:100040000C94EE030C948A000C948A000C948A00A1
:100050000C948A000C948A000C948A000C948A00F8
:100060000C948A000C948A000000000024002700F1
:100070002A0000000000250028002B0000000000DE
:1000800023002600290004040404040404040202DA
:100090000202020203030303030301020408102007
:1000A0004080010204081020010204081020000012
:1000B0000008000201000003040700000000000027
:1000C0000000E10411241FBECFEFD8E0DEBFCDBF9A
:1000D00011E0A0E0B1E0ECEAFAE002C005900D9278
:1000E000AC31B107D9F721E0ACE1B1E001C01D921C
:1000F000A334B207E1F710E0C2E6D0E004C02197D4
:10010000FE010E944905C136D107C9F70E94380493
:100110000C9454050C940000833081F028F4813055
:1001200099F08230A1F008958730A9F08830B9F0B5
:100130008430D1F4809180008F7D03C08091800055
:100140008F7780938000089584B58F7702C084B53F
:100150008F7D84BD08958091B0008F7703C080911A
:10016000B0008F7D8093B0000895CF93DF93282F48
:1001700030E0F901E255FF4F8491F901E656FF4F57
:10018000D491F901EA57FF4FC491CC2391F081112A
:100190000E948C00EC2FF0E0EE0FFF1FE458FF4FA1
:1001A000A591B491EC91ED2381E090E021F480E001
:1001B00002C080E090E0DF91CF9108951F93CF932C
:1001C000DF93282F30E0F901E255FF4F8491F901C8
:1001D000E656FF4FD491F901EA57FF4FC491CC2363
:1001E000C1F0162F81110E948C00EC2FF0E0EE0F71
:1001F000FF1FEE58FF4FA591B4919FB7F8941111CE
:1002000004C08C91D095D82302C0EC91DE2BDC93F6
:100210009FBFDF91CF911F910895CF93DF9390E01F
:10022000FC01E656FF4F2491FC01EA57FF4F8491F1
:10023000882361F190E0880F991FFC01E859FF4F76
:10024000C591D491FC01EE58FF4FA591B491611175
:1002500009C09FB7F8948881209582238883EC9108
:100260002E230BC0623061F49FB7F8948881322F3F
:10027000309583238883EC912E2B2C939FBF06C04F
:100280008FB7F894E8812E2B28838FBFDF91CF9111
:1002900008953FB7F8948091250190912601A0918F
:1002A0002701B091280126B5A89B05C02F3F19F062
:1002B0000196A11DB11D3FBFBA2FA92F982F8827E6
:1002C000820F911DA11DB11DBC01CD0142E0660F41
:1002D000771F881F991F4A95D1F708958F929F9293
:1002E000AF92BF92CF92DF92EF92FF920E944901AC
:1002F0004B015C018CE2C82EDD24D394E12CF12C5F
:100300000E944901DC01CB0188199909AA09BB099E
:10031000883E9340A105B10598F321E0C21AD108A7
:10032000E108F10888EE880E83E0981EA11CB11C3C
:10033000C114D104E104F10419F7FF90EF90DF90AC
:10034000CF90BF90AF909F908F9008950E946E01C4
:100350008091290190912A01019690932A0180931E
:100360002901809104019091050101969093050166
:100370008093040108950E946E018091290190915B
:100380002A0197FD0EC0019790932A0180932901BD
:10039000809104019091050101979093050180934C
:1003A00004018091290190912A0197FF09C0809151
:1003B000020190910301019790932A0180932901F2
:1003C0000895CF92DF92EF92FF920F931F93CF93F6
:1003D000DF936C017A018B01C0E0D0E0CE15DF0520
:1003E00081F0D8016D918D01D601ED91FC910190C4
:1003F000F081E02DC6010995892B11F02196EECFF1
:100400007E01C701DF91CF911F910F91FF90EF9077
:10041000DF90CF900895CF93DF93EC0160E08E8161
:100420000E94DE0061E08E810E94DE0060E08E812D
:100430000E94DE008BE891E00197F1F7DF91CF9108
:100440000895CF92DF92EF92FF920F931F93CF9375
:10045000DF936C017C0187E0E80EF11CC0E0D0E086
:10046000062F10E0B8010C2E02C0759567950A940E
:10047000E2F76170F70181917F010E94DE00219611
:10048000C430D10579F7C601DF91CF911F910F914B
:10049000FF90EF90DF90CF900C940B02CF92DF9201
:1004A000EF92FF920F931F93CF93DF93EC01F62E01
:1004B000642F8C810E94DE008D818F3F19F060E0F7
:1004C0000E94DE008F850F2D10E084FF25C06E0195
:1004D00087E0C80ED11CE12CF12CB8010E2C02C013
:1004E000759567950A94E2F76170F60181916F0145
:1004F0000E94DE00FFEFEF1AFF0A88E0E816F10421
:1005000061F7CE01DF91CF911F910F91FF90EF9096
:10051000DF90CF900C940B02B80184E0759567953D
:100520008A95E1F7CE010E9421026F2DCE01DF9165
:10053000CF911F910F91FF90EF90DF90CF900C948F
:10054000210240E0682F8BE291E00C944E02CF93A1
:10055000DF93823028F090913A01986090933A01AD
:1005600080933E0110923F0180E48093400180E13E
:100570008093410180E58093420161E080912F01E9
:100580000E940D01809130018F3F19F061E00E94BF
:100590000D0161E0809131010E940D01CBE2D1E0BB
:1005A0009E012B52314080913A0184FD03C084E0CA
:1005B00090E002C088E090E02196281739072CF4DB
:1005C00061E08E810E940D01EBCF8BE39DE00197EE
:1005D000F1F760E080912F010E94DE0060E08091E1
:1005E00031010E94DE00809130018F3F19F060E000
:1005F0000E94DE0080913A0184FD20C063E08BE21E
:1006000091E00E942102CBE4D6E4CE010197F1F7FC
:1006100063E08BE291E00E9421022197F1F763E011
:100620008BE291E00E94210283E592E00197F1F7CD
:1006300062E08BE291E00E94210215C080620E947C
:10064000A1028BE496E40197F1F780913A01806270
:100650000E94A10283E592E00197F1F780913A01AF
:1006600080620E94A10280913A0180620E94A102F0
:1006700084E080933B018CE00E94A10281E00E9413
:10068000A1028BE39FE10197F1F782E080933C01A7
:1006900086E0DF91CF910C94A102843008F083E0D2
:1006A00090913E01891710F08FEF890FE82FF0E04D
:1006B000E55DFE4F848980680C94A10241E00E94B0
:1006C0004E0281E090E00895089580E090E0089562
:1006D000009769F0FC0101900020E9F73197AF0124
:1006E000481B590BBC018BE291E00C94E10180E0C6
:1006F00090E008950C9468038F929F92AF92BF92FE
:10070000CF92DF92EF92FF92CF93DF93CDB7DEB718
:10071000A1970FB6F894DEBF0FBECDBF6C01990F45
:10072000EE08FF08F7FE2AC041E06DE28BE291E09F
:100730000E944E0222273327A9012C193D094E0998
:100740005F0919A2CE0181967C019AE0892E912C35
:10075000A12CB12CCA01B901A50194010E94130575
:10076000605DF70162937F01211531054105510557
:1007700089F7CF010E94680301961DC0A701960169
:1007800019A2CE0181967C018AE0882E912CA12CA1
:10079000B12CCA01B901A50194010E941305605D45
:1007A000F70162937F01211531054105510589F754
:1007B000CF010E946803A1960FB6F894DEBF0FBE6A
:1007C000CDBFDF91CF91FF90EF90DF90CF90BF90A2
:1007D000AF909F908F9008950E944F051F920F92A7
:1007E0000FB60F9211242F933F938F939F93AF9344
:1007F000BF938091210190912201A0912301B0919A
:1008000024013091200123E0230F2D3720F401969D
:10081000A11DB11D05C026E8230F0296A11DB11D23
:10082000209320018093210190932201A093230122
:10083000B09324018091250190912601A091270178
:10084000B09128010196A11DB11D809325019093BF
:100850002601A0932701B0932801BF91AF919F91EA
:100860008F913F912F910F900FBE0F901F90189571
:10087000789484B5826084BD84B5816084BD85B57B
:10088000826085BD85B5816085BD80916E00816087
:1008900080936E001092810080918100826080932D
:1008A000810080918100816080938100809180002F
:1008B0008160809380008091B10084608093B1005A
:1008C0008091B00081608093B00080917A00846054
:1008D00080937A0080917A00826080937A00809180
:1008E0007A00816080937A0080917A00806880939A
:1008F0007A001092C10082E00E94A70282E191E09A
:100900000E947A0362E08EE00E940D0162E08FE0B7
:100910000E940D0162E080E10E940D0100E010E004
:10092000EE24E394F12CC0910401D0910501609173
:10093000000170910101CE010E94FF0470931D011E
:1009400060931C0190931F0180931E012091290147
:1009500030912A018091020190910301821793073F
:1009600024F4F0922A01E092290180E00E944D03D4
:10097000CE010E947C0384E191E00E947A038EE024
:100980000E94B500892B11F40E94A6018FE00E94FD
:10099000B500892B11F40E94BB0181E00E944D0338
:1009A0008091290190912A010E947C0384E191E0C9
:1009B0000E947A030115110509F4B5CF0E940000C9
:1009C000B2CFEBE2F1E0138212828AE091E09183F0
:1009D00080838CE084838FEF85838BE0868385E042
:1009E000878384E0808783E0818782E08287138623
:1009F000148615861686178681E00C94A70297FB4D
:100A0000072E16F4009407D077FD09D00E94350513
:100A100007FC05D03EF4909581959F4F0895709501
:100A200061957F4F0895A1E21A2EAA1BBB1BFD0101
:100A30000DC0AA1FBB1FEE1FFF1FA217B307E407BD
:100A4000F50720F0A21BB30BE40BF50B661F771F15
:100A5000881F991F1A9469F76095709580959095F5
:100A60009B01AC01BD01CF010895AA1BBB1B51E145
:100A700007C0AA1FBB1FA617B70710F0A61BB70B0E
:100A8000881F991F5A95A9F780959095BC01CD01B3
:100A90000895EE0FFF1F0590F491E02D099481E079
:0C0AA00090E0F8940C945405F894FFCFFB
:100AAC0014000A001027000000005E03E10165033A
:0C0ABC006403300020737A7420202000B6
:00000001FF
